{
  "_format": "hh-sol-artifact-1",
  "contractName": "FHEEscrow",
  "sourceName": "contracts/FHEEscrow.sol",
  "abi": [
    {
      "inputs": [],
      "stateMutability": "nonpayable",
      "type": "constructor"
    },
    {
      "anonymous": false,
      "inputs": [
        {
          "indexed": true,
          "internalType": "uint256",
          "name": "escrowId",
          "type": "uint256"
        }
      ],
      "name": "EscrowCancelled",
      "type": "event"
    },
    {
      "anonymous": false,
      "inputs": [
        {
          "indexed": true,
          "internalType": "uint256",
          "name": "escrowId",
          "type": "uint256"
        }
      ],
      "name": "EscrowCompleted",
      "type": "event"
    },
    {
      "anonymous": false,
      "inputs": [
        {
          "indexed": true,
          "internalType": "uint256",
          "name": "escrowId",
          "type": "uint256"
        },
        {
          "indexed": true,
          "internalType": "address",
          "name": "buyer",
          "type": "address"
        },
        {
          "indexed": true,
          "internalType": "address",
          "name": "seller",
          "type": "address"
        },
        {
          "indexed": false,
          "internalType": "address",
          "name": "arbitrator",
          "type": "address"
        }
      ],
      "name": "EscrowCreated",
      "type": "event"
    },
    {
      "anonymous": false,
      "inputs": [
        {
          "indexed": true,
          "internalType": "uint256",
          "name": "escrowId",
          "type": "uint256"
        }
      ],
      "name": "EscrowDisputed",
      "type": "event"
    },
    {
      "anonymous": false,
      "inputs": [
        {
          "indexed": true,
          "internalType": "uint256",
          "name": "escrowId",
          "type": "uint256"
        }
      ],
      "name": "EscrowFunded",
      "type": "event"
    },
    {
      "anonymous": false,
      "inputs": [
        {
          "indexed": true,
          "internalType": "uint256",
          "name": "escrowId",
          "type": "uint256"
        },
        {
          "indexed": true,
          "internalType": "address",
          "name": "signer",
          "type": "address"
        }
      ],
      "name": "SignatureAdded",
      "type": "event"
    },
    {
      "inputs": [
        {
          "internalType": "address",
          "name": "_seller",
          "type": "address"
        },
        {
          "internalType": "address",
          "name": "_arbitrator",
          "type": "address"
        },
        {
          "internalType": "externalEuint64",
          "name": "_encryptedAmountHandle",
          "type": "bytes32"
        },
        {
          "internalType": "bytes",
          "name": "_encryptedAmountProof",
          "type": "bytes"
        },
        {
          "internalType": "string",
          "name": "_description",
          "type": "string"
        },
        {
          "internalType": "uint256",
          "name": "_timeout",
          "type": "uint256"
        }
      ],
      "name": "createEscrow",
      "outputs": [
        {
          "internalType": "uint256",
          "name": "",
          "type": "uint256"
        }
      ],
      "stateMutability": "nonpayable",
      "type": "function"
    },
    {
      "inputs": [
        {
          "internalType": "uint256",
          "name": "escrowId",
          "type": "uint256"
        }
      ],
      "name": "disputeEscrow",
      "outputs": [],
      "stateMutability": "nonpayable",
      "type": "function"
    },
    {
      "inputs": [
        {
          "internalType": "uint256",
          "name": "escrowId",
          "type": "uint256"
        }
      ],
      "name": "emergencyRefund",
      "outputs": [],
      "stateMutability": "nonpayable",
      "type": "function"
    },
    {
      "inputs": [],
      "name": "escrowCounter",
      "outputs": [
        {
          "internalType": "uint256",
          "name": "",
          "type": "uint256"
        }
      ],
      "stateMutability": "view",
      "type": "function"
    },
    {
      "inputs": [
        {
          "internalType": "uint256",
          "name": "",
          "type": "uint256"
        }
      ],
      "name": "escrows",
      "outputs": [
        {
          "internalType": "address",
          "name": "buyer",
          "type": "address"
        },
        {
          "internalType": "address",
          "name": "seller",
          "type": "address"
        },
        {
          "internalType": "address",
          "name": "arbitrator",
          "type": "address"
        },
        {
          "internalType": "euint64",
          "name": "encryptedAmount",
          "type": "bytes32"
        },
        {
          "internalType": "enum FHEEscrow.EscrowState",
          "name": "state",
          "type": "uint8"
        },
        {
          "internalType": "string",
          "name": "description",
          "type": "string"
        },
        {
          "internalType": "uint256",
          "name": "createdAt",
          "type": "uint256"
        },
        {
          "internalType": "uint256",
          "name": "timeout",
          "type": "uint256"
        },
        {
          "internalType": "uint256",
          "name": "signatureCount",
          "type": "uint256"
        },
        {
          "internalType": "ebool",
          "name": "buyerApproval",
          "type": "bytes32"
        },
        {
          "internalType": "ebool",
          "name": "sellerApproval",
          "type": "bytes32"
        },
        {
          "internalType": "ebool",
          "name": "arbitratorDecision",
          "type": "bytes32"
        }
      ],
      "stateMutability": "view",
      "type": "function"
    },
    {
      "inputs": [
        {
          "internalType": "uint256",
          "name": "escrowId",
          "type": "uint256"
        },
        {
          "internalType": "externalEuint64",
          "name": "_encryptedValueHandle",
          "type": "bytes32"
        },
        {
          "internalType": "bytes",
          "name": "_encryptedValueProof",
          "type": "bytes"
        }
      ],
      "name": "fundEscrow",
      "outputs": [],
      "stateMutability": "payable",
      "type": "function"
    },
    {
      "inputs": [
        {
          "internalType": "uint256",
          "name": "escrowId",
          "type": "uint256"
        }
      ],
      "name": "getEncryptedAmount",
      "outputs": [
        {
          "internalType": "euint64",
          "name": "",
          "type": "bytes32"
        }
      ],
      "stateMutability": "view",
      "type": "function"
    },
    {
      "inputs": [
        {
          "internalType": "uint256",
          "name": "escrowId",
          "type": "uint256"
        }
      ],
      "name": "getEscrowDetails",
      "outputs": [
        {
          "internalType": "address",
          "name": "buyer",
          "type": "address"
        },
        {
          "internalType": "address",
          "name": "seller",
          "type": "address"
        },
        {
          "internalType": "address",
          "name": "arbitrator",
          "type": "address"
        },
        {
          "internalType": "enum FHEEscrow.EscrowState",
          "name": "state",
          "type": "uint8"
        },
        {
          "internalType": "string",
          "name": "description",
          "type": "string"
        },
        {
          "internalType": "uint256",
          "name": "createdAt",
          "type": "uint256"
        },
        {
          "internalType": "uint256",
          "name": "timeout",
          "type": "uint256"
        },
        {
          "internalType": "uint256",
          "name": "signatureCount",
          "type": "uint256"
        }
      ],
      "stateMutability": "view",
      "type": "function"
    },
    {
      "inputs": [
        {
          "internalType": "uint256",
          "name": "escrowId",
          "type": "uint256"
        }
      ],
      "name": "getMyApprovalStatus",
      "outputs": [
        {
          "internalType": "ebool",
          "name": "",
          "type": "bytes32"
        }
      ],
      "stateMutability": "view",
      "type": "function"
    },
    {
      "inputs": [
        {
          "internalType": "uint256",
          "name": "escrowId",
          "type": "uint256"
        },
        {
          "internalType": "address",
          "name": "user",
          "type": "address"
        }
      ],
      "name": "hasUserSigned",
      "outputs": [
        {
          "internalType": "bool",
          "name": "",
          "type": "bool"
        }
      ],
      "stateMutability": "view",
      "type": "function"
    },
    {
      "inputs": [
        {
          "internalType": "uint256",
          "name": "escrowId",
          "type": "uint256"
        },
        {
          "internalType": "externalEbool",
          "name": "_encryptedReasonHandle",
          "type": "bytes32"
        },
        {
          "internalType": "bytes",
          "name": "_encryptedReasonProof",
          "type": "bytes"
        }
      ],
      "name": "requestRefund",
      "outputs": [],
      "stateMutability": "nonpayable",
      "type": "function"
    },
    {
      "inputs": [
        {
          "internalType": "uint256",
          "name": "escrowId",
          "type": "uint256"
        },
        {
          "internalType": "externalEbool",
          "name": "_encryptedApprovalHandle",
          "type": "bytes32"
        },
        {
          "internalType": "bytes",
          "name": "_encryptedApprovalProof",
          "type": "bytes"
        }
      ],
      "name": "signApproval",
      "outputs": [],
      "stateMutability": "nonpayable",
      "type": "function"
    }
  ],
  "bytecode": "0x608060405234801561001057600080fd5b50611e0b806100206000396000f3fe6080604052600436106100c4576000357c010000000000000000000000000000000000000000000000000000000090048063af32867411610081578063af328674146101ad578063b563153c146101cd578063b996ec2a146101ed578063c7ceafea14610221578063dfc24b7c14610237578063eb74d8351461025757600080fd5b8063012f52ee146100c95780631ca421231461010a5780632c17f1b11461012c5780632c1fb7341461015a57806363635a221461017a57806370e5deb91461018d575b600080fd5b3480156100d557600080fd5b506100e96100e4366004611731565b610287565b6040516101019c9b9a999897969594939291906117bd565b60405180910390f35b34801561011657600080fd5b5061012a6101253660046118e5565b61037e565b005b34801561013857600080fd5b5061014c610147366004611731565b6104d3565b604051908152602001610101565b34801561016657600080fd5b5061014c610175366004611731565b610595565b61012a6101883660046118e5565b610645565b34801561019957600080fd5b5061012a6101a8366004611731565b610773565b3480156101b957600080fd5b5061014c6101c8366004611951565b61091f565b3480156101d957600080fd5b5061012a6101e8366004611731565b610baf565b3480156101f957600080fd5b5061020d610208366004611731565b610ce0565b604051610101989796959493929190611a1d565b34801561022d57600080fd5b5061014c60015481565b34801561024357600080fd5b5061012a6102523660046118e5565b610e0d565b34801561026357600080fd5b50610277610272366004611a7e565b61106b565b6040519015158152602001610101565b600060208190529081526040902080546001820154600283015460038401546004850154600586018054600160a060020a03968716979587169690941694929360ff90921692916102d790611aaa565b80601f016020809104026020016040519081016040528092919081815260200182805461030390611aaa565b80156103505780601f1061032557610100808354040283529160200191610350565b820191906000526020600020905b81548152906001019060200180831161033357829003601f168201915b50505050509080600601549080600701549080600901549080600a01549080600b01549080600c015490508c565b8260015481106103ac5760405160e560020a62461bcd0281526004016103a390611ae1565b60405180910390fd5b60008481526020819052604090208054600160a060020a031633146104165760405160e560020a62461bcd02815260206004820152601d60248201527f4f6e6c792062757965722063616e207265717565737420726566756e6400000060448201526064016103a3565b600160048083015460ff16908111156104315761043161174a565b146104515760405160e560020a62461bcd0281526004016103a390611b18565b600061045d85856110c1565b9050610468816110d8565b600a8301553360009081526008830160205260408120805460ff191660011790556009830180549161049983611b68565b9091555050604051339087907f672f30a4f1ff3b2b6199e33c04b14068488fb56f841bc0ec9a30e22732cd4fec90600090a3505050505050565b60008160015481106104fa5760405160e560020a62461bcd0281526004016103a390611ae1565b6000838152602081905260409020548390600160a060020a031633148061053a5750600081815260208190526040902060010154600160a060020a031633145b8061055e5750600081815260208190526040902060020154600160a060020a031633145b61057d5760405160e560020a62461bcd0281526004016103a390611b81565b50505060009081526020819052604090206003015490565b60008160015481106105bc5760405160e560020a62461bcd0281526004016103a390611ae1565b60008381526020819052604090208054600160a060020a031633036105e657600a0154915061063f565b6001810154600160a060020a0316330361060557600b0154915061063f565b6002810154600160a060020a0316330361062457600c0154915061063f565b60405160e560020a62461bcd0281526004016103a390611b81565b50919050565b82600154811061066a5760405160e560020a62461bcd0281526004016103a390611ae1565b60008481526020819052604090208054600160a060020a031633146106d45760405160e560020a62461bcd02815260206004820152601360248201527f4f6e6c792062757965722063616e2066756e640000000000000000000000000060448201526064016103a3565b600060048083015460ff16908111156106ef576106ef61174a565b1461070f5760405160e560020a62461bcd0281526004016103a390611b18565b600061071b85856110e3565b9050600061072d8360030154836110f1565b60048401805460ff1916600117905560405190915087907f3b4f5a74452cddb80ae5a0d279eb7db6afd5e556e72ca2883016b1da7c9d211690600090a250505050505050565b8060015481106107985760405160e560020a62461bcd0281526004016103a390611ae1565b60008281526020819052604090208054600160a060020a031633146108025760405160e560020a62461bcd02815260206004820152601f60248201527f4f6e6c792062757965722063616e20656d657267656e637920726566756e640060448201526064016103a3565b600160048083015460ff169081111561081d5761081d61174a565b1461083d5760405160e560020a62461bcd0281526004016103a390611b18565b806007015481600601546108519190611bb8565b42116108a25760405160e560020a62461bcd02815260206004820152601360248201527f54696d656f7574206e6f7420726561636865640000000000000000000000000060448201526064016103a3565b6004818101805460ff191660018302179055508054604051600160a060020a0390911690303180156108fc02916000818181858888f193505050501580156108ee573d6000803e3d6000fd5b5060405183907f0d977c6b1a383ac5ce532b4a668d0ef9ad38478e1a5ff28abb221f4b682b264390600090a2505050565b6000600160a060020a038816158015906109415750600160a060020a03871615155b6109905760405160e560020a62461bcd02815260206004820152601160248201527f496e76616c69642061646472657373657300000000000000000000000000000060448201526064016103a3565b600160a060020a03881633148015906109b25750600160a060020a0387163314155b610a015760405160e560020a62461bcd02815260206004820152601960248201527f496e76616c6964207061727469636970616e7420726f6c65730000000000000060448201526064016103a3565b86600160a060020a031688600160a060020a031603610a8b5760405160e560020a62461bcd02815260206004820152602760248201527f53656c6c657220616e642061726269747261746f72206d75737420626520646960448201527f66666572656e740000000000000000000000000000000000000000000000000060648201526084016103a3565b6001805460009182610a9c83611b68565b90915550600081815260208190526040902080543373ffffffffffffffffffffffffffffffffffffffff199182161782556001820180548216600160a060020a038e811691909117909155600283018054909216908c16179055909150610b0388886110e3565b600382015560048101805460ff1916905560058101610b23868883611c18565b5042600682015560078101849055610b3b6000611123565b600a820155610b4a6000611123565b600b820155610b596000611123565b600c820155604051600160a060020a038a811682528b1690339084907fccab83b228b9f11d0f002db0d115fe84ab0bacbe475d1c28666963a66c20c4369060200160405180910390a45098975050505050505050565b806001548110610bd45760405160e560020a62461bcd0281526004016103a390611ae1565b6000828152602081905260409020548290600160a060020a0316331480610c145750600081815260208190526040902060010154600160a060020a031633145b80610c385750600081815260208190526040902060020154600160a060020a031633145b610c575760405160e560020a62461bcd0281526004016103a390611b81565b6000838152602081905260409020600160048083015460ff1690811115610c8057610c8061174a565b14610ca05760405160e560020a62461bcd0281526004016103a390611b18565b60048101805460ff1916600317905560405184907f7ce7831fed9a800b1aa5e7ca21034bf7b95efc31a196459012cf8b8eb42b7dac90600090a250505050565b60008060008060606000806000886001548110610d125760405160e560020a62461bcd0281526004016103a390611ae1565b60008a81526020819052604090208054600182015460028301546004840154600685015460078601546009870154600588018054600160a060020a0398891698978816979096169560ff9095169490939291908490610d7090611aaa565b80601f0160208091040260200160405190810160405280929190818152602001828054610d9c90611aaa565b8015610de95780601f10610dbe57610100808354040283529160200191610de9565b820191906000526020600020905b815481529060010190602001808311610dcc57829003601f168201915b50505050509350995099509950995099509950995099505050919395975091939597565b826001548110610e325760405160e560020a62461bcd0281526004016103a390611ae1565b6000848152602081905260409020548490600160a060020a0316331480610e725750600081815260208190526040902060010154600160a060020a031633145b80610e965750600081815260208190526040902060020154600160a060020a031633145b610eb55760405160e560020a62461bcd0281526004016103a390611b81565b6000858152602081905260409020600160048083015460ff1690811115610ede57610ede61174a565b14610f2e5760405160e560020a62461bcd02815260206004820152601460248201527f496e76616c696420657363726f7720737461746500000000000000000000000060448201526064016103a3565b33600090815260088201602052604090205460ff1615610f935760405160e560020a62461bcd02815260206004820152600e60248201527f416c7265616479207369676e656400000000000000000000000000000000000060448201526064016103a3565b6000610f9f86866110c1565b8254909150600160a060020a03163303610fbf57600a8201819055610ffb565b6001820154600160a060020a03163303610fdf57600b8201819055610ffb565b6002820154600160a060020a03163303610ffb57600c82018190555b3360009081526008830160205260408120805460ff191660011790556009830180549161102783611b68565b9091555050604051339088907f672f30a4f1ff3b2b6199e33c04b14068488fb56f841bc0ec9a30e22732cd4fec90600090a361106287611141565b50505050505050565b60008260015481106110925760405160e560020a62461bcd0281526004016103a390611ae1565b5050600091825260208281526040808420600160a060020a039390931684526008909201905290205460ff1690565b60006110cf838360006111c8565b90505b92915050565b60006110d2826112ff565b60006110cf838360056111c8565b6000826111055761110260006113a3565b92505b816111175761111460006113a3565b91505b6110cf838360006113ba565b60006110d282611134576000611137565b60015b60ff166000611487565b6000818152602081905260408120600a810154600b820154919291611166919061153d565b9050600061117c83600a015484600c015461153d565b9050600061119284600b015485600c015461153d565b905060006111a9846111a4858561156f565b61156f565b905060028560090154106111c0576111c0866115a1565b505050505050565b600080516020611db6833981519152546040517f196d0b9b000000000000000000000000000000000000000000000000000000008152600091600080516020611d9683398151915291600160a060020a039091169063196d0b9b90611237908890339089908990600401611cf0565b6020604051808303816000875af1158015611256573d6000803e3d6000fd5b505050506040513d601f19601f8201168201806040525081019061127a9190611d30565b81546040517f3e395cec00000000000000000000000000000000000000000000000000000000815260048101839052336024820152919350600160a060020a031690633e395cec90604401600060405180830381600087803b1580156112df57600080fd5b505af11580156112f3573d6000803e3d6000fd5b50505050509392505050565b600080600080516020611d9683398151915260018101546040517ff51ccfb000000000000000000000000000000000000000000000000000000000815260048101869052919250600160a060020a03169063f51ccfb0906024016020604051808303816000875af1158015611378573d6000803e3d6000fd5b505050506040513d601f19601f8201168201806040525081019061139c9190611d30565b9392505050565b60006110d28267ffffffffffffffff166005611487565b60008082156113ce575060f860020a6113d2565b5060005b600080516020611db6833981519152546040517ff77f3f1d000000000000000000000000000000000000000000000000000000008152600080516020611d9683398151915291600160a060020a03169063f77f3f1d9061143a90899089908790600401611d49565b6020604051808303816000875af1158015611459573d6000803e3d6000fd5b505050506040513d601f19601f8201168201806040525081019061147d9190611d30565b9695505050505050565b600080516020611db6833981519152546040517f9cd07acb000000000000000000000000000000000000000000000000000000008152600091600080516020611d9683398151915291600160a060020a0390911690639cd07acb906114f29087908790600401611d81565b6020604051808303816000875af1158015611511573d6000803e3d6000fd5b505050506040513d601f19601f820116820180604052508101906115359190611d30565b949350505050565b6000826115515761154e6000611123565b92505b81611563576115606000611123565b91505b6110cf83836000611631565b600082611583576115806000611123565b92505b81611595576115926000611123565b91505b6110cf838360006116b1565b60008181526020819052604090206004810180546002919060ff191660018302179055506001810154604051600160a060020a0390911690303180156108fc02916000818181858888f19350505050158015611601573d6000803e3d6000fd5b5060405182907f9285bd636dda01bef18996aa38303bb742f6c67a6941646dddb17630cb492c2e90600090a25050565b6000808215611645575060f860020a611649565b5060005b600080516020611db6833981519152546040517fd99882d5000000000000000000000000000000000000000000000000000000008152600080516020611d9683398151915291600160a060020a03169063d99882d59061143a90899089908790600401611d49565b60008082156116c5575060f860020a6116c9565b5060005b600080516020611db6833981519152546040517f63a2db29000000000000000000000000000000000000000000000000000000008152600080516020611d9683398151915291600160a060020a0316906363a2db299061143a90899089908790600401611d49565b60006020828403121561174357600080fd5b5035919050565b60e060020a634e487b7102600052602160045260246000fd5b600581106117735761177361174a565b9052565b6000815180845260005b8181101561179d57602081850181015186830182015201611781565b506000602082860101526020601f19601f83011685010191505092915050565b600160a060020a038d811682528c811660208301528b166040820152606081018a905260006117ef608083018b611763565b61018060a083015261180561018083018a611777565b60c08301989098525060e0810195909552610100850193909352610120840191909152610140830152610160909101529695505050505050565b60e060020a634e487b7102600052604160045260246000fd5b600082601f83011261186957600080fd5b813567ffffffffffffffff808211156118845761188461183f565b604051601f8301601f19908116603f011681019082821181831017156118ac576118ac61183f565b816040528381528660208588010111156118c557600080fd5b836020870160208301376000602085830101528094505050505092915050565b6000806000606084860312156118fa57600080fd5b8335925060208401359150604084013567ffffffffffffffff81111561191f57600080fd5b61192b86828701611858565b9150509250925092565b8035600160a060020a038116811461194c57600080fd5b919050565b600080600080600080600060c0888a03121561196c57600080fd5b61197588611935565b965061198360208901611935565b955060408801359450606088013567ffffffffffffffff808211156119a757600080fd5b6119b38b838c01611858565b955060808a01359150808211156119c957600080fd5b818a0191508a601f8301126119dd57600080fd5b8135818111156119ec57600080fd5b8b60208285010111156119fe57600080fd5b60208301955080945050505060a0880135905092959891949750929550565b600160a060020a0389811682528881166020830152871660408201526000610100611a4b6060840189611763565b806080840152611a5d81840188611777565b60a0840196909652505060c081019290925260e09091015295945050505050565b60008060408385031215611a9157600080fd5b82359150611aa160208401611935565b90509250929050565b600281046001821680611abe57607f821691505b60208210810361063f5760e060020a634e487b7102600052602260045260246000fd5b60208082526011908201527f496e76616c696420657363726f77204944000000000000000000000000000000604082015260600190565b6020808252600d908201527f496e76616c696420737461746500000000000000000000000000000000000000604082015260600190565b60e060020a634e487b7102600052601160045260246000fd5b600060018201611b7a57611b7a611b4f565b5060010190565b60208082526011908201527f4e6f742061207061727469636970616e74000000000000000000000000000000604082015260600190565b808201808211156110d2576110d2611b4f565b601f821115611c135760008160005260206000206020601f86010481016020861015611bf45750805b6020601f860104820191505b818110156111c057828155600101611c00565b505050565b67ffffffffffffffff831115611c3057611c3061183f565b611c4483611c3e8354611aaa565b83611bcb565b6000601f841160018114611c7c5760008515611c605750838201355b60028087026008880290910a6000190419821617845550611cd9565b600083815260209020601f19861690835b82811015611cad5786850135825560209485019460019092019101611c8d565b5086821015611ccd57858401356008601f89160260020a60001904191681555b50506001600286020183555b5050505050565b605481106117735761177361174a565b848152600160a060020a0384166020820152608060408201526000611d186080830185611777565b9050611d276060830184611ce0565b95945050505050565b600060208284031215611d4257600080fd5b5051919050565b92835260208301919091527fff0000000000000000000000000000000000000000000000000000000000000016604082015260600190565b8281526040810161139c6020830184611ce056feed8d60e34876f751cc8b014c560745351147d9de11b9347c854e881b128ea600ed8d60e34876f751cc8b014c560745351147d9de11b9347c854e881b128ea601a2646970667358221220b384ccd64832e92e4e2ccbcaa29119a55f5874da6689460587ea735f8acd1d7164736f6c63430008180033",
  "linkReferences": {},
  "deployedLinkReferences": {}
}