{
  "_format": "hh-sol-artifact-1",
  "contractName": "SimpleEscrow",
  "sourceName": "contracts/SimpleEscrow.sol",
  "abi": [
    {
      "inputs": [],
      "stateMutability": "nonpayable",
      "type": "constructor"
    },
    {
      "anonymous": false,
      "inputs": [
        {
          "indexed": true,
          "internalType": "uint256",
          "name": "escrowId",
          "type": "uint256"
        }
      ],
      "name": "EscrowCancelled",
      "type": "event"
    },
    {
      "anonymous": false,
      "inputs": [
        {
          "indexed": true,
          "internalType": "uint256",
          "name": "escrowId",
          "type": "uint256"
        }
      ],
      "name": "EscrowCompleted",
      "type": "event"
    },
    {
      "anonymous": false,
      "inputs": [
        {
          "indexed": true,
          "internalType": "uint256",
          "name": "escrowId",
          "type": "uint256"
        },
        {
          "indexed": true,
          "internalType": "address",
          "name": "buyer",
          "type": "address"
        },
        {
          "indexed": true,
          "internalType": "address",
          "name": "seller",
          "type": "address"
        },
        {
          "indexed": false,
          "internalType": "address",
          "name": "arbitrator",
          "type": "address"
        },
        {
          "indexed": false,
          "internalType": "uint256",
          "name": "amount",
          "type": "uint256"
        }
      ],
      "name": "EscrowCreated",
      "type": "event"
    },
    {
      "anonymous": false,
      "inputs": [
        {
          "indexed": true,
          "internalType": "uint256",
          "name": "escrowId",
          "type": "uint256"
        }
      ],
      "name": "EscrowDisputed",
      "type": "event"
    },
    {
      "anonymous": false,
      "inputs": [
        {
          "indexed": true,
          "internalType": "uint256",
          "name": "escrowId",
          "type": "uint256"
        }
      ],
      "name": "EscrowFunded",
      "type": "event"
    },
    {
      "anonymous": false,
      "inputs": [
        {
          "indexed": true,
          "internalType": "uint256",
          "name": "escrowId",
          "type": "uint256"
        },
        {
          "indexed": true,
          "internalType": "address",
          "name": "signer",
          "type": "address"
        }
      ],
      "name": "SignatureAdded",
      "type": "event"
    },
    {
      "inputs": [
        {
          "internalType": "address",
          "name": "_seller",
          "type": "address"
        },
        {
          "internalType": "address",
          "name": "_arbitrator",
          "type": "address"
        },
        {
          "internalType": "string",
          "name": "_description",
          "type": "string"
        },
        {
          "internalType": "uint256",
          "name": "_timeout",
          "type": "uint256"
        }
      ],
      "name": "createEscrow",
      "outputs": [
        {
          "internalType": "uint256",
          "name": "",
          "type": "uint256"
        }
      ],
      "stateMutability": "payable",
      "type": "function"
    },
    {
      "inputs": [
        {
          "internalType": "uint256",
          "name": "escrowId",
          "type": "uint256"
        }
      ],
      "name": "disputeEscrow",
      "outputs": [],
      "stateMutability": "nonpayable",
      "type": "function"
    },
    {
      "inputs": [
        {
          "internalType": "uint256",
          "name": "escrowId",
          "type": "uint256"
        }
      ],
      "name": "emergencyRefund",
      "outputs": [],
      "stateMutability": "nonpayable",
      "type": "function"
    },
    {
      "inputs": [],
      "name": "escrowCounter",
      "outputs": [
        {
          "internalType": "uint256",
          "name": "",
          "type": "uint256"
        }
      ],
      "stateMutability": "view",
      "type": "function"
    },
    {
      "inputs": [
        {
          "internalType": "uint256",
          "name": "",
          "type": "uint256"
        }
      ],
      "name": "escrows",
      "outputs": [
        {
          "internalType": "address",
          "name": "buyer",
          "type": "address"
        },
        {
          "internalType": "address",
          "name": "seller",
          "type": "address"
        },
        {
          "internalType": "address",
          "name": "arbitrator",
          "type": "address"
        },
        {
          "internalType": "uint256",
          "name": "amount",
          "type": "uint256"
        },
        {
          "internalType": "enum SimpleEscrow.EscrowState",
          "name": "state",
          "type": "uint8"
        },
        {
          "internalType": "string",
          "name": "description",
          "type": "string"
        },
        {
          "internalType": "uint256",
          "name": "createdAt",
          "type": "uint256"
        },
        {
          "internalType": "uint256",
          "name": "timeout",
          "type": "uint256"
        },
        {
          "internalType": "uint256",
          "name": "signatureCount",
          "type": "uint256"
        },
        {
          "internalType": "bool",
          "name": "buyerApproval",
          "type": "bool"
        },
        {
          "internalType": "bool",
          "name": "sellerApproval",
          "type": "bool"
        },
        {
          "internalType": "bool",
          "name": "arbitratorDecision",
          "type": "bool"
        }
      ],
      "stateMutability": "view",
      "type": "function"
    },
    {
      "inputs": [
        {
          "internalType": "uint256",
          "name": "escrowId",
          "type": "uint256"
        }
      ],
      "name": "getEscrowDetails",
      "outputs": [
        {
          "internalType": "address",
          "name": "buyer",
          "type": "address"
        },
        {
          "internalType": "address",
          "name": "seller",
          "type": "address"
        },
        {
          "internalType": "address",
          "name": "arbitrator",
          "type": "address"
        },
        {
          "internalType": "enum SimpleEscrow.EscrowState",
          "name": "state",
          "type": "uint8"
        },
        {
          "internalType": "string",
          "name": "description",
          "type": "string"
        },
        {
          "internalType": "uint256",
          "name": "createdAt",
          "type": "uint256"
        },
        {
          "internalType": "uint256",
          "name": "timeout",
          "type": "uint256"
        },
        {
          "internalType": "uint256",
          "name": "signatureCount",
          "type": "uint256"
        },
        {
          "internalType": "uint256",
          "name": "amount",
          "type": "uint256"
        }
      ],
      "stateMutability": "view",
      "type": "function"
    },
    {
      "inputs": [
        {
          "internalType": "uint256",
          "name": "escrowId",
          "type": "uint256"
        },
        {
          "internalType": "address",
          "name": "user",
          "type": "address"
        }
      ],
      "name": "hasUserSigned",
      "outputs": [
        {
          "internalType": "bool",
          "name": "",
          "type": "bool"
        }
      ],
      "stateMutability": "view",
      "type": "function"
    },
    {
      "inputs": [
        {
          "internalType": "uint256",
          "name": "escrowId",
          "type": "uint256"
        }
      ],
      "name": "signApproval",
      "outputs": [],
      "stateMutability": "nonpayable",
      "type": "function"
    }
  ],
  "bytecode": "0x608060405234801561001057600080fd5b50611341806100206000396000f3fe608060405260043610610098576000357c010000000000000000000000000000000000000000000000000000000090048063b563153c1161006b578063b563153c14610141578063b996ec2a14610161578063c7ceafea14610196578063eb74d835146101ac57600080fd5b8063012f52ee1461009d578063035d2b7e146100de5780632e60e8901461010057806370e5deb914610121575b600080fd5b3480156100a957600080fd5b506100bd6100b8366004610eb3565b6101dc565b6040516100d59c9b9a99989796959493929190610f50565b60405180910390f35b3480156100ea57600080fd5b506100fe6100f9366004610eb3565b6102de565b005b61011361010e366004610ff2565b610581565b6040519081526020016100d5565b34801561012d57600080fd5b506100fe61013c366004610eb3565b61086f565b34801561014d57600080fd5b506100fe61015c366004610eb3565b610a4c565b34801561016d57600080fd5b5061018161017c366004610eb3565b610be5565b6040516100d599989796959493929190611088565b3480156101a257600080fd5b5061011360015481565b3480156101b857600080fd5b506101cc6101c73660046110f2565b610d1d565b60405190151581526020016100d5565b600060208190529081526040902080546001820154600283015460038401546004850154600586018054600160a060020a03968716979587169690941694929360ff909216929161022c9061111e565b80601f01602080910402602001604051908101604052809291908181526020018280546102589061111e565b80156102a55780601f1061027a576101008083540402835291602001916102a5565b820191906000526020600020905b81548152906001019060200180831161028857829003601f168201915b50505050600683015460078401546009850154600a909501549394919390925060ff80821691610100810482169162010000909104168c565b80600154811061030c5760405160e560020a62461bcd0281526004016103039061115b565b60405180910390fd5b6000828152602081905260409020548290600160a060020a031633148061034c5750600081815260208190526040902060010154600160a060020a031633145b806103705750600081815260208190526040902060020154600160a060020a031633145b6103bf5760405160e560020a62461bcd02815260206004820152601160248201527f4e6f742061207061727469636970616e740000000000000000000000000000006044820152606401610303565b6000838152602081905260409020600160048083015460ff16908111156103e8576103e8610ecc565b146104385760405160e560020a62461bcd02815260206004820152601460248201527f496e76616c696420657363726f772073746174650000000000000000000000006044820152606401610303565b33600090815260088201602052604090205460ff161561049d5760405160e560020a62461bcd02815260206004820152600e60248201527f416c7265616479207369676e65640000000000000000000000000000000000006044820152606401610303565b3360009081526008820160205260408120805460ff19166001179055600982018054916104c9836111ab565b90915550508054600160a060020a031633036104f357600a8101805460ff19166001179055610545565b6001810154600160a060020a0316330361051d57600a8101805461ff001916610100179055610545565b6002810154600160a060020a0316330361054557600a8101805462ff00001916620100001790555b604051339085907f672f30a4f1ff3b2b6199e33c04b14068488fb56f841bc0ec9a30e22732cd4fec90600090a361057b84610d73565b50505050565b6000600160a060020a038616158015906105a35750600160a060020a03851615155b6105f25760405160e560020a62461bcd02815260206004820152601160248201527f496e76616c6964206164647265737365730000000000000000000000000000006044820152606401610303565b600160a060020a03861633148015906106145750600160a060020a0385163314155b6106635760405160e560020a62461bcd02815260206004820152601960248201527f496e76616c6964207061727469636970616e7420726f6c6573000000000000006044820152606401610303565b84600160a060020a031686600160a060020a0316036106ed5760405160e560020a62461bcd02815260206004820152602760248201527f53656c6c657220616e642061726269747261746f72206d75737420626520646960448201527f66666572656e74000000000000000000000000000000000000000000000000006064820152608401610303565b600034116107405760405160e560020a62461bcd02815260206004820152600d60248201527f4d7573742073656e6420455448000000000000000000000000000000000000006044820152606401610303565b6001805460009182610751836111ab565b90915550600081815260208190526040902080543373ffffffffffffffffffffffffffffffffffffffff19918216178255600180830180548316600160a060020a038d811691909117909155600284018054909316908b161790915534600383015560048201805460ff19169091179055909150600581016107d486888361122a565b5042600682015560078101849055600a8101805462ffffff1916905560408051600160a060020a0389811682523460208301528a1691339185917fcaf993c592f602a7d225c8556e07d471f93e7c0f2609647024e59018f5a521ac910160405180910390a460405182907f3b4f5a74452cddb80ae5a0d279eb7db6afd5e556e72ca2883016b1da7c9d211690600090a2509695505050505050565b8060015481106108945760405160e560020a62461bcd0281526004016103039061115b565b60008281526020819052604090208054600160a060020a031633146108fe5760405160e560020a62461bcd02815260206004820152601f60248201527f4f6e6c792062757965722063616e20656d657267656e637920726566756e64006044820152606401610303565b600160048083015460ff169081111561091957610919610ecc565b146109695760405160e560020a62461bcd02815260206004820152600d60248201527f496e76616c6964207374617465000000000000000000000000000000000000006044820152606401610303565b8060070154816006015461097d91906112f2565b42116109ce5760405160e560020a62461bcd02815260206004820152601360248201527f54696d656f7574206e6f742072656163686564000000000000000000000000006044820152606401610303565b6004818101805460ff1916909117905580546003820154604051600160a060020a03909216916108fc82150291906000818181858888f19350505050158015610a1b573d6000803e3d6000fd5b5060405183907f0d977c6b1a383ac5ce532b4a668d0ef9ad38478e1a5ff28abb221f4b682b264390600090a2505050565b806001548110610a715760405160e560020a62461bcd0281526004016103039061115b565b6000828152602081905260409020548290600160a060020a0316331480610ab15750600081815260208190526040902060010154600160a060020a031633145b80610ad55750600081815260208190526040902060020154600160a060020a031633145b610b245760405160e560020a62461bcd02815260206004820152601160248201527f4e6f742061207061727469636970616e740000000000000000000000000000006044820152606401610303565b6001600084815260208190526040902060049081015460ff1690811115610b4d57610b4d610ecc565b14610b9d5760405160e560020a62461bcd02815260206004820152600d60248201527f496e76616c6964207374617465000000000000000000000000000000000000006044820152606401610303565b600083815260208190526040808220600401805460ff191660031790555184917f7ce7831fed9a800b1aa5e7ca21034bf7b95efc31a196459012cf8b8eb42b7dac91a2505050565b6000806000806060600080600080896001548110610c185760405160e560020a62461bcd0281526004016103039061115b565b60008b815260208190526040902080546001820154600283015460048401546006850154600786015460098701546003880154600589018054600160a060020a03998a1699988916989097169660ff909616959094939291908590610c7c9061111e565b80601f0160208091040260200160405190810160405280929190818152602001828054610ca89061111e565b8015610cf55780601f10610cca57610100808354040283529160200191610cf5565b820191906000526020600020905b815481529060010190602001808311610cd857829003601f168201915b505050505094509a509a509a509a509a509a509a509a509a5050509193959799909294969850565b6000826001548110610d445760405160e560020a62461bcd0281526004016103039061115b565b5050600091825260208281526040808420600160a060020a039390931684526008909201905290205460ff1690565b6000818152602081905260408120600a81015490919060ff168015610da15750600a820154610100900460ff165b600a83015490915060009060ff168015610dc55750600a83015462010000900460ff165b600a840154909150600090610100900460ff168015610dee5750600a84015462010000900460ff165b905060008380610dfb5750825b80610e035750815b9050808015610e2a5750600160048087015460ff1690811115610e2857610e28610ecc565b145b15610eab5760048501805460ff1916600217905560018501546003860154604051600160a060020a03909216916108fc82150291906000818181858888f19350505050158015610e7e573d6000803e3d6000fd5b5060405186907f9285bd636dda01bef18996aa38303bb742f6c67a6941646dddb17630cb492c2e90600090a25b505050505050565b600060208284031215610ec557600080fd5b5035919050565b60e060020a634e487b7102600052602160045260246000fd5b60058110610f065760e060020a634e487b7102600052602160045260246000fd5b9052565b6000815180845260005b81811015610f3057602081850181015186830182015201610f14565b506000602082860101526020601f19601f83011685010191505092915050565b600160a060020a038d811682528c811660208301528b166040820152606081018a90526000610f82608083018b610ee5565b61018060a0830152610f9861018083018a610f0a565b60c08301989098525060e081019590955261010085019390935290151561012084015215156101408301521515610160909101529695505050505050565b8035600160a060020a0381168114610fed57600080fd5b919050565b60008060008060006080868803121561100a57600080fd5b61101386610fd6565b945061102160208701610fd6565b9350604086013567ffffffffffffffff8082111561103e57600080fd5b818801915088601f83011261105257600080fd5b81358181111561106157600080fd5b89602082850101111561107357600080fd5b96999598505060200195606001359392505050565b600160a060020a038a8116825289811660208301528816604082015260006101206110b6606084018a610ee5565b8060808401526110c881840189610f0a565b9150508560a08301528460c08301528360e0830152826101008301529a9950505050505050505050565b6000806040838503121561110557600080fd5b8235915061111560208401610fd6565b90509250929050565b60028104600182168061113257607f821691505b6020821081036111555760e060020a634e487b7102600052602260045260246000fd5b50919050565b60208082526011908201527f496e76616c696420657363726f77204944000000000000000000000000000000604082015260600190565b60e060020a634e487b7102600052601160045260246000fd5b6000600182016111bd576111bd611192565b5060010190565b60e060020a634e487b7102600052604160045260246000fd5b601f8211156112255760008160005260206000206020601f860104810160208610156112065750805b6020601f860104820191505b81811015610eab57828155600101611212565b505050565b67ffffffffffffffff831115611242576112426111c4565b61125683611250835461111e565b836111dd565b6000601f84116001811461128e57600085156112725750838201355b60028087026008880290910a60001904198216178455506112eb565b600083815260209020601f19861690835b828110156112bf578685013582556020948501946001909201910161129f565b50868210156112df57858401356008601f89160260020a60001904191681555b50506001600286020183555b5050505050565b8082018082111561130557611305611192565b9291505056fea26469706673582212209e5b87542c976dccbb5e5a1c84190bd1a34ea37b17c509225dd1a5dbc81c8b1f64736f6c63430008180033",
  "linkReferences": {},
  "deployedLinkReferences": {}
}